{
  "_format": "hh-sol-artifact-1",
  "contractName": "MedicalRecord",
  "sourceName": "contracts/MedicalRecord.sol",
  "abi": [
    {
      "anonymous": false,
      "inputs": [
        {
          "indexed": false,
          "internalType": "uint256",
          "name": "patientId",
          "type": "uint256"
        },
        {
          "indexed": false,
          "internalType": "address",
          "name": "requester",
          "type": "address"
        },
        {
          "indexed": false,
          "internalType": "uint256",
          "name": "expirationTime",
          "type": "uint256"
        }
      ],
      "name": "AccessApproved",
      "type": "event"
    },
    {
      "anonymous": false,
      "inputs": [
        {
          "indexed": false,
          "internalType": "uint256",
          "name": "patientId",
          "type": "uint256"
        },
        {
          "indexed": false,
          "internalType": "address",
          "name": "requester",
          "type": "address"
        }
      ],
      "name": "AccessDenied",
      "type": "event"
    },
    {
      "anonymous": false,
      "inputs": [
        {
          "indexed": false,
          "internalType": "uint256",
          "name": "patientId",
          "type": "uint256"
        },
        {
          "indexed": false,
          "internalType": "address",
          "name": "requester",
          "type": "address"
        },
        {
          "indexed": false,
          "internalType": "string",
          "name": "reason",
          "type": "string"
        }
      ],
      "name": "AccessRequested",
      "type": "event"
    },
    {
      "anonymous": false,
      "inputs": [
        {
          "indexed": false,
          "internalType": "uint256",
          "name": "recordId",
          "type": "uint256"
        },
        {
          "indexed": true,
          "internalType": "address",
          "name": "owner",
          "type": "address"
        },
        {
          "indexed": false,
          "internalType": "uint256",
          "name": "timestamp",
          "type": "uint256"
        },
        {
          "indexed": false,
          "internalType": "string",
          "name": "name",
          "type": "string"
        },
        {
          "indexed": false,
          "internalType": "uint256",
          "name": "age",
          "type": "uint256"
        },
        {
          "indexed": false,
          "internalType": "string",
          "name": "gender",
          "type": "string"
        },
        {
          "indexed": false,
          "internalType": "string",
          "name": "bloodType",
          "type": "string"
        },
        {
          "indexed": false,
          "internalType": "string",
          "name": "dataHash",
          "type": "string"
        }
      ],
      "name": "MedicalRecords__AddRecord",
      "type": "event"
    },
    {
      "anonymous": false,
      "inputs": [
        {
          "indexed": true,
          "internalType": "address",
          "name": "requesterAddress",
          "type": "address"
        },
        {
          "indexed": false,
          "internalType": "string",
          "name": "name",
          "type": "string"
        },
        {
          "indexed": false,
          "internalType": "string",
          "name": "role",
          "type": "string"
        }
      ],
      "name": "RequesterAdded",
      "type": "event"
    },
    {
      "inputs": [
        {
          "internalType": "uint256",
          "name": "",
          "type": "uint256"
        },
        {
          "internalType": "address",
          "name": "",
          "type": "address"
        }
      ],
      "name": "accessRequests",
      "outputs": [
        {
          "internalType": "address",
          "name": "requester",
          "type": "address"
        },
        {
          "internalType": "uint256",
          "name": "patientId",
          "type": "uint256"
        },
        {
          "internalType": "enum MedicalRecord.AccessStatus",
          "name": "status",
          "type": "uint8"
        },
        {
          "internalType": "string",
          "name": "reason",
          "type": "string"
        },
        {
          "internalType": "uint256",
          "name": "timestamp",
          "type": "uint256"
        },
        {
          "internalType": "uint256",
          "name": "expirationTime",
          "type": "uint256"
        }
      ],
      "stateMutability": "view",
      "type": "function"
    },
    {
      "inputs": [
        {
          "internalType": "address",
          "name": "owner",
          "type": "address"
        },
        {
          "internalType": "string",
          "name": "name",
          "type": "string"
        },
        {
          "internalType": "uint256",
          "name": "age",
          "type": "uint256"
        },
        {
          "internalType": "string",
          "name": "gender",
          "type": "string"
        },
        {
          "internalType": "string",
          "name": "bloodType",
          "type": "string"
        },
        {
          "internalType": "string",
          "name": "dataHash",
          "type": "string"
        }
      ],
      "name": "addPatient",
      "outputs": [],
      "stateMutability": "nonpayable",
      "type": "function"
    },
    {
      "inputs": [
        {
          "internalType": "string",
          "name": "name",
          "type": "string"
        },
        {
          "internalType": "string",
          "name": "role",
          "type": "string"
        }
      ],
      "name": "addRequester",
      "outputs": [],
      "stateMutability": "nonpayable",
      "type": "function"
    },
    {
      "inputs": [
        {
          "internalType": "uint256",
          "name": "patientId",
          "type": "uint256"
        },
        {
          "internalType": "address",
          "name": "requester",
          "type": "address"
        },
        {
          "internalType": "uint256",
          "name": "durationInDays",
          "type": "uint256"
        }
      ],
      "name": "approveAccess",
      "outputs": [],
      "stateMutability": "nonpayable",
      "type": "function"
    },
    {
      "inputs": [
        {
          "internalType": "uint256",
          "name": "",
          "type": "uint256"
        },
        {
          "internalType": "address",
          "name": "",
          "type": "address"
        }
      ],
      "name": "approvedAccess",
      "outputs": [
        {
          "internalType": "bool",
          "name": "",
          "type": "bool"
        }
      ],
      "stateMutability": "view",
      "type": "function"
    },
    {
      "inputs": [
        {
          "internalType": "uint256",
          "name": "patientId",
          "type": "uint256"
        },
        {
          "internalType": "address",
          "name": "requester",
          "type": "address"
        }
      ],
      "name": "denyAccess",
      "outputs": [],
      "stateMutability": "nonpayable",
      "type": "function"
    },
    {
      "inputs": [
        {
          "internalType": "uint256",
          "name": "_recordId",
          "type": "uint256"
        }
      ],
      "name": "getAge",
      "outputs": [
        {
          "internalType": "uint256",
          "name": "",
          "type": "uint256"
        }
      ],
      "stateMutability": "view",
      "type": "function"
    },
    {
      "inputs": [],
      "name": "getAllPatients",
      "outputs": [
        {
          "components": [
            {
              "internalType": "uint256",
              "name": "recordId",
              "type": "uint256"
            },
            {
              "internalType": "address",
              "name": "owner",
              "type": "address"
            },
            {
              "internalType": "uint256",
              "name": "timestamp",
              "type": "uint256"
            },
            {
              "internalType": "string",
              "name": "name",
              "type": "string"
            },
            {
              "internalType": "uint256",
              "name": "age",
              "type": "uint256"
            },
            {
              "internalType": "string",
              "name": "gender",
              "type": "string"
            },
            {
              "internalType": "string",
              "name": "bloodType",
              "type": "string"
            },
            {
              "internalType": "string",
              "name": "dataHash",
              "type": "string"
            }
          ],
          "internalType": "struct MedicalRecord.Patient[]",
          "name": "",
          "type": "tuple[]"
        }
      ],
      "stateMutability": "view",
      "type": "function"
    },
    {
      "inputs": [
        {
          "internalType": "uint256",
          "name": "_recordId",
          "type": "uint256"
        }
      ],
      "name": "getBloodType",
      "outputs": [
        {
          "internalType": "string",
          "name": "",
          "type": "string"
        }
      ],
      "stateMutability": "view",
      "type": "function"
    },
    {
      "inputs": [
        {
          "internalType": "uint256",
          "name": "_recordId",
          "type": "uint256"
        }
      ],
      "name": "getGender",
      "outputs": [
        {
          "internalType": "string",
          "name": "",
          "type": "string"
        }
      ],
      "stateMutability": "view",
      "type": "function"
    },
    {
      "inputs": [
        {
          "internalType": "uint256",
          "name": "_recordId",
          "type": "uint256"
        }
      ],
      "name": "getName",
      "outputs": [
        {
          "internalType": "string",
          "name": "",
          "type": "string"
        }
      ],
      "stateMutability": "view",
      "type": "function"
    },
    {
      "inputs": [
        {
          "internalType": "address",
          "name": "patientAddress",
          "type": "address"
        }
      ],
      "name": "getPatientByAddress",
      "outputs": [
        {
          "internalType": "uint256",
          "name": "",
          "type": "uint256"
        },
        {
          "internalType": "address",
          "name": "",
          "type": "address"
        },
        {
          "internalType": "uint256",
          "name": "",
          "type": "uint256"
        },
        {
          "internalType": "string",
          "name": "",
          "type": "string"
        },
        {
          "internalType": "uint256",
          "name": "",
          "type": "uint256"
        },
        {
          "internalType": "string",
          "name": "",
          "type": "string"
        },
        {
          "internalType": "string",
          "name": "",
          "type": "string"
        },
        {
          "internalType": "string",
          "name": "",
          "type": "string"
        }
      ],
      "stateMutability": "view",
      "type": "function"
    },
    {
      "inputs": [],
      "name": "getPatientCount",
      "outputs": [
        {
          "internalType": "uint256",
          "name": "",
          "type": "uint256"
        }
      ],
      "stateMutability": "view",
      "type": "function"
    },
    {
      "inputs": [
        {
          "internalType": "uint256",
          "name": "patientId",
          "type": "uint256"
        }
      ],
      "name": "getPatientData",
      "outputs": [
        {
          "internalType": "uint256",
          "name": "",
          "type": "uint256"
        },
        {
          "internalType": "address",
          "name": "",
          "type": "address"
        },
        {
          "internalType": "uint256",
          "name": "",
          "type": "uint256"
        },
        {
          "internalType": "string",
          "name": "",
          "type": "string"
        },
        {
          "internalType": "uint256",
          "name": "",
          "type": "uint256"
        },
        {
          "internalType": "string",
          "name": "",
          "type": "string"
        },
        {
          "internalType": "string",
          "name": "",
          "type": "string"
        },
        {
          "internalType": "string",
          "name": "",
          "type": "string"
        }
      ],
      "stateMutability": "view",
      "type": "function"
    },
    {
      "inputs": [],
      "name": "getRecordId",
      "outputs": [
        {
          "internalType": "uint256",
          "name": "",
          "type": "uint256"
        }
      ],
      "stateMutability": "view",
      "type": "function"
    },
    {
      "inputs": [
        {
          "internalType": "address",
          "name": "requester",
          "type": "address"
        }
      ],
      "name": "getRequesterAddress",
      "outputs": [
        {
          "internalType": "address",
          "name": "",
          "type": "address"
        }
      ],
      "stateMutability": "view",
      "type": "function"
    },
    {
      "inputs": [
        {
          "internalType": "address",
          "name": "requester",
          "type": "address"
        }
      ],
      "name": "getRequesterData",
      "outputs": [
        {
          "internalType": "address",
          "name": "",
          "type": "address"
        },
        {
          "internalType": "string",
          "name": "",
          "type": "string"
        },
        {
          "internalType": "string",
          "name": "",
          "type": "string"
        }
      ],
      "stateMutability": "view",
      "type": "function"
    },
    {
      "inputs": [
        {
          "internalType": "address",
          "name": "requester",
          "type": "address"
        }
      ],
      "name": "getRequesterName",
      "outputs": [
        {
          "internalType": "string",
          "name": "",
          "type": "string"
        }
      ],
      "stateMutability": "view",
      "type": "function"
    },
    {
      "inputs": [
        {
          "internalType": "address",
          "name": "requester",
          "type": "address"
        }
      ],
      "name": "getRequesterRole",
      "outputs": [
        {
          "internalType": "string",
          "name": "",
          "type": "string"
        }
      ],
      "stateMutability": "view",
      "type": "function"
    },
    {
      "inputs": [
        {
          "internalType": "uint256",
          "name": "_recordId",
          "type": "uint256"
        }
      ],
      "name": "getTimeStamp",
      "outputs": [
        {
          "internalType": "uint256",
          "name": "",
          "type": "uint256"
        }
      ],
      "stateMutability": "view",
      "type": "function"
    },
    {
      "inputs": [
        {
          "internalType": "uint256",
          "name": "patientId",
          "type": "uint256"
        },
        {
          "internalType": "address",
          "name": "requester",
          "type": "address"
        }
      ],
      "name": "hasAccess",
      "outputs": [
        {
          "internalType": "bool",
          "name": "",
          "type": "bool"
        }
      ],
      "stateMutability": "view",
      "type": "function"
    },
    {
      "inputs": [
        {
          "internalType": "uint256",
          "name": "",
          "type": "uint256"
        }
      ],
      "name": "patients",
      "outputs": [
        {
          "internalType": "uint256",
          "name": "recordId",
          "type": "uint256"
        },
        {
          "internalType": "address",
          "name": "owner",
          "type": "address"
        },
        {
          "internalType": "uint256",
          "name": "timestamp",
          "type": "uint256"
        },
        {
          "internalType": "string",
          "name": "name",
          "type": "string"
        },
        {
          "internalType": "uint256",
          "name": "age",
          "type": "uint256"
        },
        {
          "internalType": "string",
          "name": "gender",
          "type": "string"
        },
        {
          "internalType": "string",
          "name": "bloodType",
          "type": "string"
        },
        {
          "internalType": "string",
          "name": "dataHash",
          "type": "string"
        }
      ],
      "stateMutability": "view",
      "type": "function"
    },
    {
      "inputs": [
        {
          "internalType": "address",
          "name": "",
          "type": "address"
        }
      ],
      "name": "patientsByAddress",
      "outputs": [
        {
          "internalType": "uint256",
          "name": "recordId",
          "type": "uint256"
        },
        {
          "internalType": "address",
          "name": "owner",
          "type": "address"
        },
        {
          "internalType": "uint256",
          "name": "timestamp",
          "type": "uint256"
        },
        {
          "internalType": "string",
          "name": "name",
          "type": "string"
        },
        {
          "internalType": "uint256",
          "name": "age",
          "type": "uint256"
        },
        {
          "internalType": "string",
          "name": "gender",
          "type": "string"
        },
        {
          "internalType": "string",
          "name": "bloodType",
          "type": "string"
        },
        {
          "internalType": "string",
          "name": "dataHash",
          "type": "string"
        }
      ],
      "stateMutability": "view",
      "type": "function"
    },
    {
      "inputs": [],
      "name": "recordId",
      "outputs": [
        {
          "internalType": "uint256",
          "name": "",
          "type": "uint256"
        }
      ],
      "stateMutability": "view",
      "type": "function"
    },
    {
      "inputs": [
        {
          "internalType": "uint256",
          "name": "patientId",
          "type": "uint256"
        },
        {
          "internalType": "string",
          "name": "_reason",
          "type": "string"
        }
      ],
      "name": "requestAccess",
      "outputs": [],
      "stateMutability": "nonpayable",
      "type": "function"
    },
    {
      "inputs": [
        {
          "internalType": "uint256",
          "name": "",
          "type": "uint256"
        }
      ],
      "name": "requesterAddresses",
      "outputs": [
        {
          "internalType": "address",
          "name": "",
          "type": "address"
        }
      ],
      "stateMutability": "view",
      "type": "function"
    },
    {
      "inputs": [
        {
          "internalType": "address",
          "name": "",
          "type": "address"
        }
      ],
      "name": "requesters",
      "outputs": [
        {
          "internalType": "address",
          "name": "requesterAddress",
          "type": "address"
        },
        {
          "internalType": "string",
          "name": "name",
          "type": "string"
        },
        {
          "internalType": "string",
          "name": "role",
          "type": "string"
        },
        {
          "internalType": "uint256",
          "name": "registrationTime",
          "type": "uint256"
        }
      ],
      "stateMutability": "view",
      "type": "function"
    }
  ],
  "bytecode": "0x608060405234801561001057600080fd5b50614903806100206000396000f3fe608060405234801561001057600080fd5b50600436106101a95760003560e01c80637e36962b116100f9578063c190665b11610097578063dab52a7611610071578063dab52a761461059e578063e06d2eb5146105ba578063f7dfe22b146105ea578063fcd419c314610608576101a9565b8063c190665b1461051d578063ced141981461053b578063d6f8307f1461056b576101a9565b806399055dda116100d357806399055dda14610463578063b5f8bbe914610481578063b810793e146104b6578063ba5c0335146104e6576101a9565b80637e36962b146103ca5780639213be6d146103fc57806393119a831461042c576101a9565b806345a3a815116101665780635d68154c116101405780635d68154c146102fc5780636747f391146103335780636b8ff574146103635780637d8e34f314610393576101a9565b806345a3a815146102805780635578a850146102b05780635a39077c146102e0576101a9565b80630c7b5167146101ae5780630e37008a146101ca57806318a231a9146101fa578063260027de146102185780633eb4ac571461023457806344eba01e14610250575b600080fd5b6101c860048036038101906101c39190613869565b610638565b005b6101e460048036038101906101df91906138bc565b610979565b6040516101f191906138f8565b60405180910390f35b610202610999565b60405161020f9190613b51565b60405180910390f35b610232600480360381019061022d9190613ca8565b610d8c565b005b61024e60048036038101906102499190613d20565b610fd5565b005b61026a60048036038101906102659190613e1d565b6113aa565b6040516102779190613e59565b60405180910390f35b61029a60048036038101906102959190613e1d565b6114e7565b6040516102a79190613ebe565b60405180910390f35b6102ca60048036038101906102c59190613ee0565b61168d565b6040516102d79190613f3b565b60405180910390f35b6102fa60048036038101906102f59190613ee0565b6116bc565b005b61031660048036038101906103119190613e1d565b6119d4565b60405161032a989796959493929190613f56565b60405180910390f35b61034d600480360381019061034891906138bc565b611c5c565b60405161035a91906138f8565b60405180910390f35b61037d600480360381019061037891906138bc565b611c7c565b60405161038a9190613ebe565b60405180910390f35b6103ad60048036038101906103a891906138bc565b611d24565b6040516103c1989796959493929190613f56565b60405180910390f35b6103e460048036038101906103df9190613e1d565b61232e565b6040516103f393929190613ff0565b60405180910390f35b61041660048036038101906104119190613e1d565b6125f4565b6040516104239190613ebe565b60405180910390f35b610446600480360381019061044191906138bc565b61279a565b60405161045a989796959493929190613f56565b60405180910390f35b61046b612a22565b60405161047891906138f8565b60405180910390f35b61049b60048036038101906104969190613ee0565b612a2b565b6040516104ad969594939291906140ac565b60405180910390f35b6104d060048036038101906104cb91906138bc565b612b29565b6040516104dd9190613ebe565b60405180910390f35b61050060048036038101906104fb9190613e1d565b612bd1565b604051610514989796959493929190613f56565b60405180910390f35b610525612f2e565b60405161053291906138f8565b60405180910390f35b61055560048036038101906105509190613ee0565b612f3b565b6040516105629190613f3b565b60405180910390f35b61058560048036038101906105809190613e1d565b613163565b6040516105959493929190614114565b60405180910390f35b6105b860048036038101906105b39190614167565b6132c3565b005b6105d460048036038101906105cf91906138bc565b6135d6565b6040516105e19190613ebe565b60405180910390f35b6105f261367e565b6040516105ff91906138f8565b60405180910390f35b610622600480360381019061061d91906138bc565b613684565b60405161062f9190613e59565b60405180910390f35b823373ffffffffffffffffffffffffffffffffffffffff166001600083815260200190815260200160002060010160009054906101000a900473ffffffffffffffffffffffffffffffffffffffff1673ffffffffffffffffffffffffffffffffffffffff16146106dd576040517f08c379a00000000000000000000000000000000000000000000000000000000081526004016106d490614235565b60405180910390fd5b60006006600086815260200190815260200160002060008573ffffffffffffffffffffffffffffffffffffffff1673ffffffffffffffffffffffffffffffffffffffff16815260200190815260200160002090506000600281111561074557610744614035565b5b8160020160009054906101000a900460ff16600281111561076957610768614035565b5b146107a9576040517f08c379a00000000000000000000000000000000000000000000000000000000081526004016107a0906142a1565b60405180910390fd5b600073ffffffffffffffffffffffffffffffffffffffff16600460008673ffffffffffffffffffffffffffffffffffffffff1673ffffffffffffffffffffffffffffffffffffffff16815260200190815260200160002060000160009054906101000a900473ffffffffffffffffffffffffffffffffffffffff1673ffffffffffffffffffffffffffffffffffffffff16141561087b576040517f08c379a00000000000000000000000000000000000000000000000000000000081526004016108729061430d565b60405180910390fd5b60018160020160006101000a81548160ff021916908360028111156108a3576108a2614035565b5b021790555062015180836108b7919061435c565b426108c291906143b6565b816005018190555060016007600087815260200190815260200160002060008673ffffffffffffffffffffffffffffffffffffffff1673ffffffffffffffffffffffffffffffffffffffff16815260200190815260200160002060006101000a81548160ff0219169083151502179055507f48ae3ba146201cdafd628e5f29e78614c4aad583007b13d64e161955bb59833e8585836005015460405161096a9392919061440c565b60405180910390a15050505050565b600060016000838152602001908152602001600020600401549050919050565b6060600060038054905067ffffffffffffffff8111156109bc576109bb613b7d565b5b6040519080825280602002602001820160405280156109f557816020015b6109e26136c3565b8152602001906001900390816109da5790505b50905060005b600380549050811015610d8457600060038281548110610a1e57610a1d614443565b5b9060005260206000200160009054906101000a900473ffffffffffffffffffffffffffffffffffffffff169050600260008273ffffffffffffffffffffffffffffffffffffffff1673ffffffffffffffffffffffffffffffffffffffff16815260200190815260200160002060405180610100016040529081600082015481526020016001820160009054906101000a900473ffffffffffffffffffffffffffffffffffffffff1673ffffffffffffffffffffffffffffffffffffffff1673ffffffffffffffffffffffffffffffffffffffff16815260200160028201548152602001600382018054610b10906144a1565b80601f0160208091040260200160405190810160405280929190818152602001828054610b3c906144a1565b8015610b895780601f10610b5e57610100808354040283529160200191610b89565b820191906000526020600020905b815481529060010190602001808311610b6c57829003601f168201915b5050505050815260200160048201548152602001600582018054610bac906144a1565b80601f0160208091040260200160405190810160405280929190818152602001828054610bd8906144a1565b8015610c255780601f10610bfa57610100808354040283529160200191610c25565b820191906000526020600020905b815481529060010190602001808311610c0857829003601f168201915b50505050508152602001600682018054610c3e906144a1565b80601f0160208091040260200160405190810160405280929190818152602001828054610c6a906144a1565b8015610cb75780601f10610c8c57610100808354040283529160200191610cb7565b820191906000526020600020905b815481529060010190602001808311610c9a57829003601f168201915b50505050508152602001600782018054610cd0906144a1565b80601f0160208091040260200160405190810160405280929190818152602001828054610cfc906144a1565b8015610d495780601f10610d1e57610100808354040283529160200191610d49565b820191906000526020600020905b815481529060010190602001808311610d2c57829003601f168201915b505050505081525050838381518110610d6557610d64614443565b5b6020026020010181905250508080610d7c906144d3565b9150506109fb565b508091505090565b6000825111610dd0576040517f08c379a0000000000000000000000000000000000000000000000000000000008152600401610dc790614568565b60405180910390fd5b6000815111610e14576040517f08c379a0000000000000000000000000000000000000000000000000000000008152600401610e0b906145d4565b60405180910390fd5b600060405180608001604052803373ffffffffffffffffffffffffffffffffffffffff16815260200184815260200183815260200142815250905080600460003373ffffffffffffffffffffffffffffffffffffffff1673ffffffffffffffffffffffffffffffffffffffff16815260200190815260200160002060008201518160000160006101000a81548173ffffffffffffffffffffffffffffffffffffffff021916908373ffffffffffffffffffffffffffffffffffffffff1602179055506020820151816001019080519060200190610ef292919061371e565b506040820151816002019080519060200190610f0f92919061371e565b50606082015181600301559050506005339080600181540180825580915050600190039060005260206000200160009091909190916101000a81548173ffffffffffffffffffffffffffffffffffffffff021916908373ffffffffffffffffffffffffffffffffffffffff1602179055503373ffffffffffffffffffffffffffffffffffffffff167ff26fe021727e25e3b5c2f61448405fd76d4cc421d9080344a06f6ea253d10beb8484604051610fc89291906145f4565b60405180910390a2505050565b6000855111611019576040517f08c379a000000000000000000000000000000000000000000000000000000000815260040161101090614568565b60405180910390fd5b6000841180156110295750609684105b611068576040517f08c379a000000000000000000000000000000000000000000000000000000000815260040161105f90614677565b60405180910390fd5b60008081548092919061107a906144d3565b9190505550600060405180610100016040528060005481526020018873ffffffffffffffffffffffffffffffffffffffff1681526020014281526020018781526020018681526020018581526020018481526020018381525090508060016000805481526020019081526020016000206000820151816000015560208201518160010160006101000a81548173ffffffffffffffffffffffffffffffffffffffff021916908373ffffffffffffffffffffffffffffffffffffffff16021790555060408201518160020155606082015181600301908051906020019061116192919061371e565b506080820151816004015560a082015181600501908051906020019061118892919061371e565b5060c08201518160060190805190602001906111a592919061371e565b5060e08201518160070190805190602001906111c292919061371e565b5090505080600260008973ffffffffffffffffffffffffffffffffffffffff1673ffffffffffffffffffffffffffffffffffffffff1681526020019081526020016000206000820151816000015560208201518160010160006101000a81548173ffffffffffffffffffffffffffffffffffffffff021916908373ffffffffffffffffffffffffffffffffffffffff16021790555060408201518160020155606082015181600301908051906020019061127d92919061371e565b506080820151816004015560a08201518160050190805190602001906112a492919061371e565b5060c08201518160060190805190602001906112c192919061371e565b5060e08201518160070190805190602001906112de92919061371e565b509050506003879080600181540180825580915050600190039060005260206000200160009091909190916101000a81548173ffffffffffffffffffffffffffffffffffffffff021916908373ffffffffffffffffffffffffffffffffffffffff1602179055508673ffffffffffffffffffffffffffffffffffffffff167f65683cb10ac70a7daad237d4a156ee8c0d0df65cf78d766f14c34e6736d086706000544289898989896040516113999796959493929190614697565b60405180910390a250505050505050565b60008073ffffffffffffffffffffffffffffffffffffffff16600460008473ffffffffffffffffffffffffffffffffffffffff1673ffffffffffffffffffffffffffffffffffffffff16815260200190815260200160002060000160009054906101000a900473ffffffffffffffffffffffffffffffffffffffff1673ffffffffffffffffffffffffffffffffffffffff16141561147d576040517f08c379a00000000000000000000000000000000000000000000000000000000081526004016114749061430d565b60405180910390fd5b600460008373ffffffffffffffffffffffffffffffffffffffff1673ffffffffffffffffffffffffffffffffffffffff16815260200190815260200160002060000160009054906101000a900473ffffffffffffffffffffffffffffffffffffffff169050919050565b6060600073ffffffffffffffffffffffffffffffffffffffff16600460008473ffffffffffffffffffffffffffffffffffffffff1673ffffffffffffffffffffffffffffffffffffffff16815260200190815260200160002060000160009054906101000a900473ffffffffffffffffffffffffffffffffffffffff1673ffffffffffffffffffffffffffffffffffffffff1614156115bb576040517f08c379a00000000000000000000000000000000000000000000000000000000081526004016115b29061430d565b60405180910390fd5b600460008373ffffffffffffffffffffffffffffffffffffffff1673ffffffffffffffffffffffffffffffffffffffff1681526020019081526020016000206001018054611608906144a1565b80601f0160208091040260200160405190810160405280929190818152602001828054611634906144a1565b80156116815780601f1061165657610100808354040283529160200191611681565b820191906000526020600020905b81548152906001019060200180831161166457829003601f168201915b50505050509050919050565b60076020528160005260406000206020528060005260406000206000915091509054906101000a900460ff1681565b813373ffffffffffffffffffffffffffffffffffffffff166001600083815260200190815260200160002060010160009054906101000a900473ffffffffffffffffffffffffffffffffffffffff1673ffffffffffffffffffffffffffffffffffffffff1614611761576040517f08c379a000000000000000000000000000000000000000000000000000000000815260040161175890614235565b60405180910390fd5b60006006600085815260200190815260200160002060008473ffffffffffffffffffffffffffffffffffffffff1673ffffffffffffffffffffffffffffffffffffffff1681526020019081526020016000209050600060028111156117c9576117c8614035565b5b8160020160009054906101000a900460ff1660028111156117ed576117ec614035565b5b1461182d576040517f08c379a0000000000000000000000000000000000000000000000000000000008152600401611824906142a1565b60405180910390fd5b600073ffffffffffffffffffffffffffffffffffffffff16600460008573ffffffffffffffffffffffffffffffffffffffff1673ffffffffffffffffffffffffffffffffffffffff16815260200190815260200160002060000160009054906101000a900473ffffffffffffffffffffffffffffffffffffffff1673ffffffffffffffffffffffffffffffffffffffff1614156118ff576040517f08c379a00000000000000000000000000000000000000000000000000000000081526004016118f69061430d565b60405180910390fd5b60028160020160006101000a81548160ff0219169083600281111561192757611926614035565b5b021790555060006007600086815260200190815260200160002060008573ffffffffffffffffffffffffffffffffffffffff1673ffffffffffffffffffffffffffffffffffffffff16815260200190815260200160002060006101000a81548160ff0219169083151502179055507fc14f92ab7742ff4ef0fc5f742c674ac214ad556477ed325129ce31664896655084846040516119c6929190614722565b60405180910390a150505050565b60026020528060005260406000206000915090508060000154908060010160009054906101000a900473ffffffffffffffffffffffffffffffffffffffff1690806002015490806003018054611a29906144a1565b80601f0160208091040260200160405190810160405280929190818152602001828054611a55906144a1565b8015611aa25780601f10611a7757610100808354040283529160200191611aa2565b820191906000526020600020905b815481529060010190602001808311611a8557829003601f168201915b505050505090806004015490806005018054611abd906144a1565b80601f0160208091040260200160405190810160405280929190818152602001828054611ae9906144a1565b8015611b365780601f10611b0b57610100808354040283529160200191611b36565b820191906000526020600020905b815481529060010190602001808311611b1957829003601f168201915b505050505090806006018054611b4b906144a1565b80601f0160208091040260200160405190810160405280929190818152602001828054611b77906144a1565b8015611bc45780601f10611b9957610100808354040283529160200191611bc4565b820191906000526020600020905b815481529060010190602001808311611ba757829003601f168201915b505050505090806007018054611bd9906144a1565b80601f0160208091040260200160405190810160405280929190818152602001828054611c05906144a1565b8015611c525780601f10611c2757610100808354040283529160200191611c52565b820191906000526020600020905b815481529060010190602001808311611c3557829003601f168201915b5050505050905088565b600060016000838152602001908152602001600020600201549050919050565b6060600160008381526020019081526020016000206003018054611c9f906144a1565b80601f0160208091040260200160405190810160405280929190818152602001828054611ccb906144a1565b8015611d185780601f10611ced57610100808354040283529160200191611d18565b820191906000526020600020905b815481529060010190602001808311611cfb57829003601f168201915b50505050509050919050565b60008060006060600060608060603373ffffffffffffffffffffffffffffffffffffffff16600160008b815260200190815260200160002060010160009054906101000a900473ffffffffffffffffffffffffffffffffffffffff1673ffffffffffffffffffffffffffffffffffffffff16141561203d576000600160008b8152602001908152602001600020905080600001548160010160009054906101000a900473ffffffffffffffffffffffffffffffffffffffff168260020154836003018460040154856005018660060187600701848054611e03906144a1565b80601f0160208091040260200160405190810160405280929190818152602001828054611e2f906144a1565b8015611e7c5780601f10611e5157610100808354040283529160200191611e7c565b820191906000526020600020905b815481529060010190602001808311611e5f57829003601f168201915b50505050509450828054611e8f906144a1565b80601f0160208091040260200160405190810160405280929190818152602001828054611ebb906144a1565b8015611f085780601f10611edd57610100808354040283529160200191611f08565b820191906000526020600020905b815481529060010190602001808311611eeb57829003601f168201915b50505050509250818054611f1b906144a1565b80601f0160208091040260200160405190810160405280929190818152602001828054611f47906144a1565b8015611f945780601f10611f6957610100808354040283529160200191611f94565b820191906000526020600020905b815481529060010190602001808311611f7757829003601f168201915b50505050509150808054611fa7906144a1565b80601f0160208091040260200160405190810160405280929190818152602001828054611fd3906144a1565b80156120205780601f10611ff557610100808354040283529160200191612020565b820191906000526020600020905b81548152906001019060200180831161200357829003601f168201915b505050505090509850985098509850985098509850985050612323565b6120478933612f3b565b612086576040517f08c379a000000000000000000000000000000000000000000000000000000000815260040161207d90614797565b60405180910390fd5b6000600160008b8152602001908152602001600020905080600001548160010160009054906101000a900473ffffffffffffffffffffffffffffffffffffffff1682600201548360030184600401548560050186600601876007018480546120ed906144a1565b80601f0160208091040260200160405190810160405280929190818152602001828054612119906144a1565b80156121665780601f1061213b57610100808354040283529160200191612166565b820191906000526020600020905b81548152906001019060200180831161214957829003601f168201915b50505050509450828054612179906144a1565b80601f01602080910402602001604051908101604052809291908181526020018280546121a5906144a1565b80156121f25780601f106121c7576101008083540402835291602001916121f2565b820191906000526020600020905b8154815290600101906020018083116121d557829003601f168201915b50505050509250818054612205906144a1565b80601f0160208091040260200160405190810160405280929190818152602001828054612231906144a1565b801561227e5780601f106122535761010080835404028352916020019161227e565b820191906000526020600020905b81548152906001019060200180831161226157829003601f168201915b50505050509150808054612291906144a1565b80601f01602080910402602001604051908101604052809291908181526020018280546122bd906144a1565b801561230a5780601f106122df5761010080835404028352916020019161230a565b820191906000526020600020905b8154815290600101906020018083116122ed57829003601f168201915b5050505050905098509850985098509850985098509850505b919395975091939597565b6000606080600073ffffffffffffffffffffffffffffffffffffffff16600460008673ffffffffffffffffffffffffffffffffffffffff1673ffffffffffffffffffffffffffffffffffffffff16815260200190815260200160002060000160009054906101000a900473ffffffffffffffffffffffffffffffffffffffff1673ffffffffffffffffffffffffffffffffffffffff161415612405576040517f08c379a00000000000000000000000000000000000000000000000000000000081526004016123fc9061430d565b60405180910390fd5b6000600460008673ffffffffffffffffffffffffffffffffffffffff1673ffffffffffffffffffffffffffffffffffffffff1681526020019081526020016000206040518060800160405290816000820160009054906101000a900473ffffffffffffffffffffffffffffffffffffffff1673ffffffffffffffffffffffffffffffffffffffff1673ffffffffffffffffffffffffffffffffffffffff1681526020016001820180546124b7906144a1565b80601f01602080910402602001604051908101604052809291908181526020018280546124e3906144a1565b80156125305780601f1061250557610100808354040283529160200191612530565b820191906000526020600020905b81548152906001019060200180831161251357829003601f168201915b50505050508152602001600282018054612549906144a1565b80601f0160208091040260200160405190810160405280929190818152602001828054612575906144a1565b80156125c25780601f10612597576101008083540402835291602001916125c2565b820191906000526020600020905b8154815290600101906020018083116125a557829003601f168201915b505050505081526020016003820154815250509050806000015181602001518260400151935093509350509193909250565b6060600073ffffffffffffffffffffffffffffffffffffffff16600460008473ffffffffffffffffffffffffffffffffffffffff1673ffffffffffffffffffffffffffffffffffffffff16815260200190815260200160002060000160009054906101000a900473ffffffffffffffffffffffffffffffffffffffff1673ffffffffffffffffffffffffffffffffffffffff1614156126c8576040517f08c379a00000000000000000000000000000000000000000000000000000000081526004016126bf9061430d565b60405180910390fd5b600460008373ffffffffffffffffffffffffffffffffffffffff1673ffffffffffffffffffffffffffffffffffffffff1681526020019081526020016000206002018054612715906144a1565b80601f0160208091040260200160405190810160405280929190818152602001828054612741906144a1565b801561278e5780601f106127635761010080835404028352916020019161278e565b820191906000526020600020905b81548152906001019060200180831161277157829003601f168201915b50505050509050919050565b60016020528060005260406000206000915090508060000154908060010160009054906101000a900473ffffffffffffffffffffffffffffffffffffffff16908060020154908060030180546127ef906144a1565b80601f016020809104026020016040519081016040528092919081815260200182805461281b906144a1565b80156128685780601f1061283d57610100808354040283529160200191612868565b820191906000526020600020905b81548152906001019060200180831161284b57829003601f168201915b505050505090806004015490806005018054612883906144a1565b80601f01602080910402602001604051908101604052809291908181526020018280546128af906144a1565b80156128fc5780601f106128d1576101008083540402835291602001916128fc565b820191906000526020600020905b8154815290600101906020018083116128df57829003601f168201915b505050505090806006018054612911906144a1565b80601f016020809104026020016040519081016040528092919081815260200182805461293d906144a1565b801561298a5780601f1061295f5761010080835404028352916020019161298a565b820191906000526020600020905b81548152906001019060200180831161296d57829003601f168201915b50505050509080600701805461299f906144a1565b80601f01602080910402602001604051908101604052809291908181526020018280546129cb906144a1565b8015612a185780601f106129ed57610100808354040283529160200191612a18565b820191906000526020600020905b8154815290600101906020018083116129fb57829003601f168201915b5050505050905088565b60008054905090565b6006602052816000526040600020602052806000526040600020600091509150508060000160009054906101000a900473ffffffffffffffffffffffffffffffffffffffff16908060010154908060020160009054906101000a900460ff1690806003018054612a9a906144a1565b80601f0160208091040260200160405190810160405280929190818152602001828054612ac6906144a1565b8015612b135780601f10612ae857610100808354040283529160200191612b13565b820191906000526020600020905b815481529060010190602001808311612af657829003601f168201915b5050505050908060040154908060050154905086565b6060600160008381526020019081526020016000206006018054612b4c906144a1565b80601f0160208091040260200160405190810160405280929190818152602001828054612b78906144a1565b8015612bc55780601f10612b9a57610100808354040283529160200191612bc5565b820191906000526020600020905b815481529060010190602001808311612ba857829003601f168201915b50505050509050919050565b60008060006060600060608060606000600260008b73ffffffffffffffffffffffffffffffffffffffff1673ffffffffffffffffffffffffffffffffffffffff16815260200190815260200160002060405180610100016040529081600082015481526020016001820160009054906101000a900473ffffffffffffffffffffffffffffffffffffffff1673ffffffffffffffffffffffffffffffffffffffff1673ffffffffffffffffffffffffffffffffffffffff16815260200160028201548152602001600382018054612ca6906144a1565b80601f0160208091040260200160405190810160405280929190818152602001828054612cd2906144a1565b8015612d1f5780601f10612cf457610100808354040283529160200191612d1f565b820191906000526020600020905b815481529060010190602001808311612d0257829003601f168201915b5050505050815260200160048201548152602001600582018054612d42906144a1565b80601f0160208091040260200160405190810160405280929190818152602001828054612d6e906144a1565b8015612dbb5780601f10612d9057610100808354040283529160200191612dbb565b820191906000526020600020905b815481529060010190602001808311612d9e57829003601f168201915b50505050508152602001600682018054612dd4906144a1565b80601f0160208091040260200160405190810160405280929190818152602001828054612e00906144a1565b8015612e4d5780601f10612e2257610100808354040283529160200191612e4d565b820191906000526020600020905b815481529060010190602001808311612e3057829003601f168201915b50505050508152602001600782018054612e66906144a1565b80601f0160208091040260200160405190810160405280929190818152602001828054612e92906144a1565b8015612edf5780601f10612eb457610100808354040283529160200191612edf565b820191906000526020600020905b815481529060010190602001808311612ec257829003601f168201915b5050505050815250509050806000015181602001518260400151836060015184608001518560a001518660c001518760e001519850985098509850985098509850985050919395975091939597565b6000600380549050905090565b60006007600084815260200190815260200160002060008373ffffffffffffffffffffffffffffffffffffffff1673ffffffffffffffffffffffffffffffffffffffff16815260200190815260200160002060009054906101000a900460ff16156131585760006006600085815260200190815260200160002060008473ffffffffffffffffffffffffffffffffffffffff1673ffffffffffffffffffffffffffffffffffffffff1681526020019081526020016000206040518060c00160405290816000820160009054906101000a900473ffffffffffffffffffffffffffffffffffffffff1673ffffffffffffffffffffffffffffffffffffffff1673ffffffffffffffffffffffffffffffffffffffff168152602001600182015481526020016002820160009054906101000a900460ff16600281111561308257613081614035565b5b600281111561309457613093614035565b5b81526020016003820180546130a8906144a1565b80601f01602080910402602001604051908101604052809291908181526020018280546130d4906144a1565b80156131215780601f106130f657610100808354040283529160200191613121565b820191906000526020600020905b81548152906001019060200180831161310457829003601f168201915b50505050508152602001600482015481526020016005820154815250509050428160a00151111561315657600191505061315d565b505b600090505b92915050565b60046020528060005260406000206000915090508060000160009054906101000a900473ffffffffffffffffffffffffffffffffffffffff16908060010180546131ac906144a1565b80601f01602080910402602001604051908101604052809291908181526020018280546131d8906144a1565b80156132255780601f106131fa57610100808354040283529160200191613225565b820191906000526020600020905b81548152906001019060200180831161320857829003601f168201915b50505050509080600201805461323a906144a1565b80601f0160208091040260200160405190810160405280929190818152602001828054613266906144a1565b80156132b35780601f10613288576101008083540402835291602001916132b3565b820191906000526020600020905b81548152906001019060200180831161329657829003601f168201915b5050505050908060030154905084565b600073ffffffffffffffffffffffffffffffffffffffff166001600084815260200190815260200160002060010160009054906101000a900473ffffffffffffffffffffffffffffffffffffffff1673ffffffffffffffffffffffffffffffffffffffff161415613369576040517f08c379a000000000000000000000000000000000000000000000000000000000815260040161336090614803565b60405180910390fd5b600073ffffffffffffffffffffffffffffffffffffffff16600460003373ffffffffffffffffffffffffffffffffffffffff1673ffffffffffffffffffffffffffffffffffffffff16815260200190815260200160002060000160009054906101000a900473ffffffffffffffffffffffffffffffffffffffff1673ffffffffffffffffffffffffffffffffffffffff16141561343b576040517f08c379a00000000000000000000000000000000000000000000000000000000081526004016134329061486f565b60405180910390fd5b6040518060c001604052803373ffffffffffffffffffffffffffffffffffffffff1681526020018381526020016000600281111561347c5761347b614035565b5b815260200182815260200142815260200160008152506006600084815260200190815260200160002060003373ffffffffffffffffffffffffffffffffffffffff1673ffffffffffffffffffffffffffffffffffffffff16815260200190815260200160002060008201518160000160006101000a81548173ffffffffffffffffffffffffffffffffffffffff021916908373ffffffffffffffffffffffffffffffffffffffff1602179055506020820151816001015560408201518160020160006101000a81548160ff0219169083600281111561355e5761355d614035565b5b0217905550606082015181600301908051906020019061357f92919061371e565b506080820151816004015560a082015181600501559050507fa964b0d5b0ae345368407279f158ce01fbdafd867ce29bc1a4cf30fef68fdd8c8233836040516135ca9392919061488f565b60405180910390a15050565b60606001600083815260200190815260200160002060050180546135f9906144a1565b80601f0160208091040260200160405190810160405280929190818152602001828054613625906144a1565b80156136725780601f1061364757610100808354040283529160200191613672565b820191906000526020600020905b81548152906001019060200180831161365557829003601f168201915b50505050509050919050565b60005481565b6005818154811061369457600080fd5b906000526020600020016000915054906101000a900473ffffffffffffffffffffffffffffffffffffffff1681565b60405180610100016040528060008152602001600073ffffffffffffffffffffffffffffffffffffffff1681526020016000815260200160608152602001600081526020016060815260200160608152602001606081525090565b82805461372a906144a1565b90600052602060002090601f01602090048101928261374c5760008555613793565b82601f1061376557805160ff1916838001178555613793565b82800160010185558215613793579182015b82811115613792578251825591602001919060010190613777565b5b5090506137a091906137a4565b5090565b5b808211156137bd5760008160009055506001016137a5565b5090565b6000604051905090565b600080fd5b600080fd5b6000819050919050565b6137e8816137d5565b81146137f357600080fd5b50565b600081359050613805816137df565b92915050565b600073ffffffffffffffffffffffffffffffffffffffff82169050919050565b60006138368261380b565b9050919050565b6138468161382b565b811461385157600080fd5b50565b6000813590506138638161383d565b92915050565b600080600060608486031215613882576138816137cb565b5b6000613890868287016137f6565b93505060206138a186828701613854565b92505060406138b2868287016137f6565b9150509250925092565b6000602082840312156138d2576138d16137cb565b5b60006138e0848285016137f6565b91505092915050565b6138f2816137d5565b82525050565b600060208201905061390d60008301846138e9565b92915050565b600081519050919050565b600082825260208201905092915050565b6000819050602082019050919050565b613948816137d5565b82525050565b6139578161382b565b82525050565b600081519050919050565b600082825260208201905092915050565b60005b8381101561399757808201518184015260208101905061397c565b838111156139a6576000848401525b50505050565b6000601f19601f8301169050919050565b60006139c88261395d565b6139d28185613968565b93506139e2818560208601613979565b6139eb816139ac565b840191505092915050565b600061010083016000830151613a0f600086018261393f565b506020830151613a22602086018261394e565b506040830151613a35604086018261393f565b5060608301518482036060860152613a4d82826139bd565b9150506080830151613a62608086018261393f565b5060a083015184820360a0860152613a7a82826139bd565b91505060c083015184820360c0860152613a9482826139bd565b91505060e083015184820360e0860152613aae82826139bd565b9150508091505092915050565b6000613ac783836139f6565b905092915050565b6000602082019050919050565b6000613ae782613913565b613af1818561391e565b935083602082028501613b038561392f565b8060005b85811015613b3f5784840389528151613b208582613abb565b9450613b2b83613acf565b925060208a01995050600181019050613b07565b50829750879550505050505092915050565b60006020820190508181036000830152613b6b8184613adc565b905092915050565b600080fd5b600080fd5b7f4e487b7100000000000000000000000000000000000000000000000000000000600052604160045260246000fd5b613bb5826139ac565b810181811067ffffffffffffffff82111715613bd457613bd3613b7d565b5b80604052505050565b6000613be76137c1565b9050613bf38282613bac565b919050565b600067ffffffffffffffff821115613c1357613c12613b7d565b5b613c1c826139ac565b9050602081019050919050565b82818337600083830152505050565b6000613c4b613c4684613bf8565b613bdd565b905082815260208101848484011115613c6757613c66613b78565b5b613c72848285613c29565b509392505050565b600082601f830112613c8f57613c8e613b73565b5b8135613c9f848260208601613c38565b91505092915050565b60008060408385031215613cbf57613cbe6137cb565b5b600083013567ffffffffffffffff811115613cdd57613cdc6137d0565b5b613ce985828601613c7a565b925050602083013567ffffffffffffffff811115613d0a57613d096137d0565b5b613d1685828601613c7a565b9150509250929050565b60008060008060008060c08789031215613d3d57613d3c6137cb565b5b6000613d4b89828a01613854565b965050602087013567ffffffffffffffff811115613d6c57613d6b6137d0565b5b613d7889828a01613c7a565b9550506040613d8989828a016137f6565b945050606087013567ffffffffffffffff811115613daa57613da96137d0565b5b613db689828a01613c7a565b935050608087013567ffffffffffffffff811115613dd757613dd66137d0565b5b613de389828a01613c7a565b92505060a087013567ffffffffffffffff811115613e0457613e036137d0565b5b613e1089828a01613c7a565b9150509295509295509295565b600060208284031215613e3357613e326137cb565b5b6000613e4184828501613854565b91505092915050565b613e538161382b565b82525050565b6000602082019050613e6e6000830184613e4a565b92915050565b600082825260208201905092915050565b6000613e908261395d565b613e9a8185613e74565b9350613eaa818560208601613979565b613eb3816139ac565b840191505092915050565b60006020820190508181036000830152613ed88184613e85565b905092915050565b60008060408385031215613ef757613ef66137cb565b5b6000613f05858286016137f6565b9250506020613f1685828601613854565b9150509250929050565b60008115159050919050565b613f3581613f20565b82525050565b6000602082019050613f506000830184613f2c565b92915050565b600061010082019050613f6c600083018b6138e9565b613f79602083018a613e4a565b613f8660408301896138e9565b8181036060830152613f988188613e85565b9050613fa760808301876138e9565b81810360a0830152613fb98186613e85565b905081810360c0830152613fcd8185613e85565b905081810360e0830152613fe18184613e85565b90509998505050505050505050565b60006060820190506140056000830186613e4a565b81810360208301526140178185613e85565b9050818103604083015261402b8184613e85565b9050949350505050565b7f4e487b7100000000000000000000000000000000000000000000000000000000600052602160045260246000fd5b6003811061407557614074614035565b5b50565b600081905061408682614064565b919050565b600061409682614078565b9050919050565b6140a68161408b565b82525050565b600060c0820190506140c16000830189613e4a565b6140ce60208301886138e9565b6140db604083018761409d565b81810360608301526140ed8186613e85565b90506140fc60808301856138e9565b61410960a08301846138e9565b979650505050505050565b60006080820190506141296000830187613e4a565b818103602083015261413b8186613e85565b9050818103604083015261414f8185613e85565b905061415e60608301846138e9565b95945050505050565b6000806040838503121561417e5761417d6137cb565b5b600061418c858286016137f6565b925050602083013567ffffffffffffffff8111156141ad576141ac6137d0565b5b6141b985828601613c7a565b9150509250929050565b7f4f6e6c79207468652070617469656e742063616e20706572666f726d2074686960008201527f7320616374696f6e000000000000000000000000000000000000000000000000602082015250565b600061421f602883613e74565b915061422a826141c3565b604082019050919050565b6000602082019050818103600083015261424e81614212565b9050919050565b7f5265717565737420616c72656164792070726f63657373656400000000000000600082015250565b600061428b601983613e74565b915061429682614255565b602082019050919050565b600060208201905081810360008301526142ba8161427e565b9050919050565b7f52657175657374657220646f6573206e6f742065786973740000000000000000600082015250565b60006142f7601883613e74565b9150614302826142c1565b602082019050919050565b60006020820190508181036000830152614326816142ea565b9050919050565b7f4e487b7100000000000000000000000000000000000000000000000000000000600052601160045260246000fd5b6000614367826137d5565b9150614372836137d5565b9250817fffffffffffffffffffffffffffffffffffffffffffffffffffffffffffffffff04831182151516156143ab576143aa61432d565b5b828202905092915050565b60006143c1826137d5565b91506143cc836137d5565b9250827fffffffffffffffffffffffffffffffffffffffffffffffffffffffffffffffff038211156144015761440061432d565b5b828201905092915050565b600060608201905061442160008301866138e9565b61442e6020830185613e4a565b61443b60408301846138e9565b949350505050565b7f4e487b7100000000000000000000000000000000000000000000000000000000600052603260045260246000fd5b7f4e487b7100000000000000000000000000000000000000000000000000000000600052602260045260246000fd5b600060028204905060018216806144b957607f821691505b602082108114156144cd576144cc614472565b5b50919050565b60006144de826137d5565b91507fffffffffffffffffffffffffffffffffffffffffffffffffffffffffffffffff8214156145115761451061432d565b5b600182019050919050565b7f4e616d652063616e6e6f7420626520656d707479000000000000000000000000600082015250565b6000614552601483613e74565b915061455d8261451c565b602082019050919050565b6000602082019050818103600083015261458181614545565b9050919050565b7f526f6c652063616e6e6f7420626520656d707479000000000000000000000000600082015250565b60006145be601483613e74565b91506145c982614588565b602082019050919050565b600060208201905081810360008301526145ed816145b1565b9050919050565b6000604082019050818103600083015261460e8185613e85565b905081810360208301526146228184613e85565b90509392505050565b7f496e76616c696420616765000000000000000000000000000000000000000000600082015250565b6000614661600b83613e74565b915061466c8261462b565b602082019050919050565b6000602082019050818103600083015261469081614654565b9050919050565b600060e0820190506146ac600083018a6138e9565b6146b960208301896138e9565b81810360408301526146cb8188613e85565b90506146da60608301876138e9565b81810360808301526146ec8186613e85565b905081810360a08301526147008185613e85565b905081810360c08301526147148184613e85565b905098975050505050505050565b600060408201905061473760008301856138e9565b6147446020830184613e4a565b9392505050565b7f416363657373206e6f74206772616e7465640000000000000000000000000000600082015250565b6000614781601283613e74565b915061478c8261474b565b602082019050919050565b600060208201905081810360008301526147b081614774565b9050919050565b7f50617469656e7420646f6573206e6f7420657869737400000000000000000000600082015250565b60006147ed601683613e74565b91506147f8826147b7565b602082019050919050565b6000602082019050818103600083015261481c816147e0565b9050919050565b7f5265717565737465722070726f66696c65206e6f7420666f756e640000000000600082015250565b6000614859601b83613e74565b915061486482614823565b602082019050919050565b600060208201905081810360008301526148888161484c565b9050919050565b60006060820190506148a460008301866138e9565b6148b16020830185613e4a565b81810360408301526148c38184613e85565b905094935050505056fea26469706673582212202f74330b2b77c21bca0279580fd7fb429d07c5e7615892356c4d49e0c270f12f64736f6c63430008080033",
  "linkReferences": {},
  "deployedLinkReferences": {}
}